:0C000000830100308A0004288301A92A33
:100402000530831685008101FF30831299008B012C
:1004120083168C0105309F00831208008312A70106
:10042200A8018830A5001330A6006400A5080319AE
:10043200A603A5032608803AB200803032020130BA
:10044200031925020318162AA70A0319A80A28085D
:10045200803AB20083303202E830031927020318CF
:100462000800122A8312A50083125E223208A60017
:100472003308A700E430B6000C30B700B801B90168
:100482002708B3002608B200B401B501C22332081E
:10049200A8003308A9003408AA003508AB000A30C6
:1004A200B2000310AB0CAA0CA90CA80CB20B522A76
:1004B2002908B3002808B20008008312AC00AE017C
:1004C200AF01B2000310B20D0310320D81389F004C
:1004D2000830AD006D2A0000AD032D0F6C2A0530E7
:1004E200AD007E2A9F149F1C742A1E08B000B10121
:1004F20083161E088312B000B101AD032D0F732ABB
:10050200AE01AF011030AD009A2A9F149F1C872ABA
:100512001E08B000B101B100B00183161E0883129B
:10052200B0070318B10A3008AE070318AF0A310842
:10053200AF07AD032D0F862A2F08B3002E08B20095
:100542000430B4000310B30CB20CB40BA32A08009D
:1005520083120122CF3085056430A000B22A8510B3
:100562008514A003200FB02A851000308312332295
:100572003208A3003308A400851402303322320863
:10058200A1003308A200063024025A3003192302C4
:10059200031CE22A093024021F3003192302031824
:1005A200E22A2208B3002108B200B1234030B5008C
:1005B200E230B6004430B70079230318E22A303023
:1005C2008504063024024F3003192302031C042B36
:1005D200093024022A30031923020318042B2208AB
:1005E200B3002108B200B1233208B5003308B600C7
:1005F2003408B7008030B200E330B3004430B400B6
:1006020079230318062BCF3085052208B300210871
:10061200B200B1233208B5003308B6003408B7007F
:100622008030B200E330B3004430B40079230318C1
:100632001D2BCF3085050F226400B52A84080319CB
:1006420000343408800084033308800084033208B5
:1006520080000034BA01330D340DB8003808031994
:10066200362BBA0DB401B3170800B201B301B401BD
:100672000034BA10360D370DB90039080319462B6C
:100682000318BA14B701B6170800B901B501B601CB
:10069200B701080038080319362BB313BA0C380C0B
:1006A200B4000318B3171F2BB808031D692BB2013E
:1006B200B301B4011F2B34030319B20A0319B30A9D
:1006C2000319B40A0310B40CB30CB20CB80A552BBC
:1006D200B408031D5C2B320833040319582BB31BD7
:1006E2004B2BB8030319582B0310B20DB30D702B0B
:1006F2003408370680390319822B370D3708013841
:100702000800B41337087F393402031D902B3608D2
:100712003302031D902B3508320203190800030827
:100722000238B71B013A8300031880380800B51F4E
:100732009D2B3A14B4239E2BBA018E30B80084014B
:10074200B5080319552B0310B50CB40CB30CB20C3D
:10075200B80AA12BB401B31BB4033408B500982B1B
:10076200B401B5019D2B0310FF30B207B209031C7F
:10077200B307B309031CB407B409031CB507B509D1
:10078200080084013208BA003308BB003408BC00F8
:100792003508BD00B401B501B201B3010310BD0CAF
:1007A200BC0CBB0CBA0C031CE42B3608B20737088E
:1007B2000318370FB30738080318380FB40739087E
:1007C2000318390FB5073A083B043C043D040319EA
:1007D200F02B0310B60DB70DB80DB90DCF2B840851
:1007E2000319003435088000840334088000840330
:0C07F200330880008403320880000034CB
:02400E00CC01E3
:00000001FF
